{
  "_format": "hh-sol-artifact-1",
  "contractName": "NectrStaking",
  "sourceName": "contracts/NectrStaking.sol",
  "abi": [
    {
      "inputs": [
        {
          "internalType": "address",
          "name": "_nectrToken",
          "type": "address"
        }
      ],
      "stateMutability": "nonpayable",
      "type": "constructor"
    },
    {
      "inputs": [],
      "name": "InvalidAmount",
      "type": "error"
    },
    {
      "inputs": [],
      "name": "InvalidDuration",
      "type": "error"
    },
    {
      "inputs": [],
      "name": "NoInterestAccrued",
      "type": "error"
    },
    {
      "inputs": [],
      "name": "ReentrancyGuardReentrantCall",
      "type": "error"
    },
    {
      "inputs": [
        {
          "internalType": "address",
          "name": "token",
          "type": "address"
        }
      ],
      "name": "SafeERC20FailedOperation",
      "type": "error"
    },
    {
      "inputs": [],
      "name": "StakeAlreadyWithdrawn",
      "type": "error"
    },
    {
      "inputs": [],
      "name": "StakeNotFound",
      "type": "error"
    },
    {
      "anonymous": false,
      "inputs": [
        {
          "indexed": true,
          "internalType": "address",
          "name": "user",
          "type": "address"
        },
        {
          "indexed": false,
          "internalType": "uint256",
          "name": "amount",
          "type": "uint256"
        },
        {
          "indexed": false,
          "internalType": "uint256",
          "name": "stakeId",
          "type": "uint256"
        }
      ],
      "name": "InterestClaimed",
      "type": "event"
    },
    {
      "anonymous": false,
      "inputs": [
        {
          "indexed": true,
          "internalType": "address",
          "name": "user",
          "type": "address"
        },
        {
          "indexed": false,
          "internalType": "uint256",
          "name": "amount",
          "type": "uint256"
        },
        {
          "indexed": false,
          "internalType": "uint256",
          "name": "duration",
          "type": "uint256"
        },
        {
          "indexed": false,
          "internalType": "uint256",
          "name": "stakeId",
          "type": "uint256"
        }
      ],
      "name": "Staked",
      "type": "event"
    },
    {
      "anonymous": false,
      "inputs": [
        {
          "indexed": true,
          "internalType": "address",
          "name": "user",
          "type": "address"
        },
        {
          "indexed": false,
          "internalType": "uint256",
          "name": "amount",
          "type": "uint256"
        },
        {
          "indexed": false,
          "internalType": "uint256",
          "name": "interest",
          "type": "uint256"
        },
        {
          "indexed": false,
          "internalType": "uint256",
          "name": "penalty",
          "type": "uint256"
        },
        {
          "indexed": false,
          "internalType": "uint256",
          "name": "stakeId",
          "type": "uint256"
        }
      ],
      "name": "Withdrawn",
      "type": "event"
    },
    {
      "inputs": [],
      "name": "APR_DENOMINATOR",
      "outputs": [
        {
          "internalType": "uint256",
          "name": "",
          "type": "uint256"
        }
      ],
      "stateMutability": "view",
      "type": "function"
    },
    {
      "inputs": [],
      "name": "PENALTY_DENOMINATOR",
      "outputs": [
        {
          "internalType": "uint256",
          "name": "",
          "type": "uint256"
        }
      ],
      "stateMutability": "view",
      "type": "function"
    },
    {
      "inputs": [],
      "name": "SECONDS_PER_DAY",
      "outputs": [
        {
          "internalType": "uint256",
          "name": "",
          "type": "uint256"
        }
      ],
      "stateMutability": "view",
      "type": "function"
    },
    {
      "inputs": [],
      "name": "activeStakersCount",
      "outputs": [
        {
          "internalType": "uint256",
          "name": "",
          "type": "uint256"
        }
      ],
      "stateMutability": "view",
      "type": "function"
    },
    {
      "inputs": [],
      "name": "baseAPR",
      "outputs": [
        {
          "internalType": "uint256",
          "name": "",
          "type": "uint256"
        }
      ],
      "stateMutability": "view",
      "type": "function"
    },
    {
      "inputs": [],
      "name": "bonusAPR",
      "outputs": [
        {
          "internalType": "uint256",
          "name": "",
          "type": "uint256"
        }
      ],
      "stateMutability": "view",
      "type": "function"
    },
    {
      "inputs": [
        {
          "internalType": "uint256",
          "name": "duration",
          "type": "uint256"
        }
      ],
      "name": "calculateAPR",
      "outputs": [
        {
          "internalType": "uint256",
          "name": "",
          "type": "uint256"
        }
      ],
      "stateMutability": "view",
      "type": "function"
    },
    {
      "inputs": [
        {
          "components": [
            {
              "internalType": "uint256",
              "name": "amount",
              "type": "uint256"
            },
            {
              "internalType": "uint256",
              "name": "startTime",
              "type": "uint256"
            },
            {
              "internalType": "uint256",
              "name": "endTime",
              "type": "uint256"
            },
            {
              "internalType": "uint256",
              "name": "lastClaimTime",
              "type": "uint256"
            },
            {
              "internalType": "bool",
              "name": "withdrawn",
              "type": "bool"
            }
          ],
          "internalType": "struct NectrStaking.StakeInfo",
          "name": "stakeInfo",
          "type": "tuple"
        },
        {
          "internalType": "uint256",
          "name": "currentTime",
          "type": "uint256"
        }
      ],
      "name": "calculateInterest",
      "outputs": [
        {
          "internalType": "uint256",
          "name": "",
          "type": "uint256"
        }
      ],
      "stateMutability": "view",
      "type": "function"
    },
    {
      "inputs": [
        {
          "internalType": "uint256",
          "name": "stakeId",
          "type": "uint256"
        }
      ],
      "name": "claimInterest",
      "outputs": [],
      "stateMutability": "nonpayable",
      "type": "function"
    },
    {
      "inputs": [],
      "name": "earlyWithdrawalPenalty",
      "outputs": [
        {
          "internalType": "uint256",
          "name": "",
          "type": "uint256"
        }
      ],
      "stateMutability": "view",
      "type": "function"
    },
    {
      "inputs": [
        {
          "internalType": "address",
          "name": "user",
          "type": "address"
        }
      ],
      "name": "getActiveStakesCount",
      "outputs": [
        {
          "internalType": "uint256",
          "name": "",
          "type": "uint256"
        }
      ],
      "stateMutability": "view",
      "type": "function"
    },
    {
      "inputs": [
        {
          "internalType": "uint256",
          "name": "duration",
          "type": "uint256"
        }
      ],
      "name": "getCurrentAPR",
      "outputs": [
        {
          "internalType": "uint256",
          "name": "",
          "type": "uint256"
        }
      ],
      "stateMutability": "view",
      "type": "function"
    },
    {
      "inputs": [
        {
          "internalType": "address",
          "name": "user",
          "type": "address"
        },
        {
          "internalType": "uint256",
          "name": "stakeId",
          "type": "uint256"
        }
      ],
      "name": "getPendingInterest",
      "outputs": [
        {
          "internalType": "uint256",
          "name": "",
          "type": "uint256"
        }
      ],
      "stateMutability": "view",
      "type": "function"
    },
    {
      "inputs": [
        {
          "internalType": "address",
          "name": "user",
          "type": "address"
        }
      ],
      "name": "getStakes",
      "outputs": [
        {
          "components": [
            {
              "internalType": "uint256",
              "name": "amount",
              "type": "uint256"
            },
            {
              "internalType": "uint256",
              "name": "startTime",
              "type": "uint256"
            },
            {
              "internalType": "uint256",
              "name": "endTime",
              "type": "uint256"
            },
            {
              "internalType": "uint256",
              "name": "lastClaimTime",
              "type": "uint256"
            },
            {
              "internalType": "bool",
              "name": "withdrawn",
              "type": "bool"
            }
          ],
          "internalType": "struct NectrStaking.StakeInfo[]",
          "name": "",
          "type": "tuple[]"
        }
      ],
      "stateMutability": "view",
      "type": "function"
    },
    {
      "inputs": [],
      "name": "maxStakeDuration",
      "outputs": [
        {
          "internalType": "uint256",
          "name": "",
          "type": "uint256"
        }
      ],
      "stateMutability": "view",
      "type": "function"
    },
    {
      "inputs": [],
      "name": "minStakeDuration",
      "outputs": [
        {
          "internalType": "uint256",
          "name": "",
          "type": "uint256"
        }
      ],
      "stateMutability": "view",
      "type": "function"
    },
    {
      "inputs": [],
      "name": "nectrToken",
      "outputs": [
        {
          "internalType": "contract IERC20",
          "name": "",
          "type": "address"
        }
      ],
      "stateMutability": "view",
      "type": "function"
    },
    {
      "inputs": [
        {
          "internalType": "uint256",
          "name": "amount",
          "type": "uint256"
        },
        {
          "internalType": "uint256",
          "name": "duration",
          "type": "uint256"
        }
      ],
      "name": "stake",
      "outputs": [],
      "stateMutability": "nonpayable",
      "type": "function"
    },
    {
      "inputs": [],
      "name": "totalStakedAmount",
      "outputs": [
        {
          "internalType": "uint256",
          "name": "",
          "type": "uint256"
        }
      ],
      "stateMutability": "view",
      "type": "function"
    },
    {
      "inputs": [
        {
          "internalType": "address",
          "name": "",
          "type": "address"
        },
        {
          "internalType": "uint256",
          "name": "",
          "type": "uint256"
        }
      ],
      "name": "userStakes",
      "outputs": [
        {
          "internalType": "uint256",
          "name": "amount",
          "type": "uint256"
        },
        {
          "internalType": "uint256",
          "name": "startTime",
          "type": "uint256"
        },
        {
          "internalType": "uint256",
          "name": "endTime",
          "type": "uint256"
        },
        {
          "internalType": "uint256",
          "name": "lastClaimTime",
          "type": "uint256"
        },
        {
          "internalType": "bool",
          "name": "withdrawn",
          "type": "bool"
        }
      ],
      "stateMutability": "view",
      "type": "function"
    },
    {
      "inputs": [
        {
          "internalType": "uint256",
          "name": "stakeId",
          "type": "uint256"
        }
      ],
      "name": "withdraw",
      "outputs": [],
      "stateMutability": "nonpayable",
      "type": "function"
    }
  ],
  "bytecode": "0x60a060405261012c6001556303c26700600255600a6003556102da6004556103e860055534801561002f57600080fd5b50604051611e14380380611e14833981810160405281019061005191906100f6565b60016000819055508073ffffffffffffffffffffffffffffffffffffffff1660808173ffffffffffffffffffffffffffffffffffffffff168152505050610123565b600080fd5b600073ffffffffffffffffffffffffffffffffffffffff82169050919050565b60006100c382610098565b9050919050565b6100d3816100b8565b81146100de57600080fd5b50565b6000815190506100f0816100ca565b92915050565b60006020828403121561010c5761010b610093565b5b600061011a848285016100e1565b91505092915050565b608051611cc16101536000396000818161063a0152818161095e01528181610ae90152610ba30152611cc16000f3fe608060405234801561001057600080fd5b50600436106101375760003560e01c806376106004116100b8578063b5d5b5fa1161007c578063b5d5b5fa1461032e578063bc5542c014610362578063d1a02a8614610380578063f133dda5146103b0578063f480ff5b146103e0578063fb9e7aa01461041057610137565b8063761060041461028857806376f70003146102a65780637b0472f0146102c45780637ba6f458146102e0578063b3a36f1e1461031057610137565b806351ab1f49116100ff57806351ab1f49146101e0578063567e98f91461021057806358ac0e801461022e5780635fec5c641461024c57806374f0314f1461026a57610137565b8063291a3d9e1461013c5780632e1a7d4d1461015a5780632eb375ea14610176578063332085d5146101925780633691a0ad146101c2575b600080fd5b61014461042e565b604051610151919061142d565b60405180910390f35b610174600480360381019061016f9190611483565b610434565b005b610190600480360381019061018b9190611483565b610784565b005b6101ac60048036038101906101a79190611483565b610a00565b6040516101b9919061142d565b60405180910390f35b6101ca610a12565b6040516101d7919061142d565b60405180910390f35b6101fa60048036038101906101f59190611605565b610a18565b604051610207919061142d565b60405180910390f35b610218610ace565b604051610225919061142d565b60405180910390f35b610236610ad4565b604051610243919061142d565b60405180910390f35b610254610ada565b604051610261919061142d565b60405180910390f35b610272610ae0565b60405161027f919061142d565b60405180910390f35b610290610ae7565b60405161029d91906116c4565b60405180910390f35b6102ae610b0b565b6040516102bb919061142d565b60405180910390f35b6102de60048036038101906102d991906116df565b610b11565b005b6102fa60048036038101906102f5919061175d565b610e5c565b60405161030791906118bf565b60405180910390f35b610318610f3d565b604051610325919061142d565b60405180910390f35b610348600480360381019061034391906118e1565b610f43565b604051610359959493929190611930565b60405180910390f35b61036a610fa3565b604051610377919061142d565b60405180910390f35b61039a60048036038101906103959190611483565b610fa8565b6040516103a7919061142d565b60405180910390f35b6103ca60048036038101906103c591906118e1565b611000565b6040516103d7919061142d565b60405180910390f35b6103fa60048036038101906103f5919061175d565b61112d565b604051610407919061142d565b60405180910390f35b61041861121b565b604051610425919061142d565b60405180910390f35b60035481565b61043c611221565b600960003373ffffffffffffffffffffffffffffffffffffffff1673ffffffffffffffffffffffffffffffffffffffff1681526020019081526020016000208054905081106104b7576040517f8c877d2100000000000000000000000000000000000000000000000000000000815260040160405180910390fd5b6000600960003373ffffffffffffffffffffffffffffffffffffffff1673ffffffffffffffffffffffffffffffffffffffff168152602001908152602001600020828154811061050a57610509611983565b5b906000526020600020906005020190508060040160009054906101000a900460ff1615610563576040517f64141f3400000000000000000000000000000000000000000000000000000000815260040160405180910390fd5b600042905060006105c2836040518060a0016040529081600082015481526020016001820154815260200160028201548152602001600382015481526020016004820160009054906101000a900460ff16151515158152505083610a18565b9050600083600201548310156105f757606460035485600001546105e691906119e1565b6105f09190611a52565b9050600091505b60008183866000015461060a9190611a83565b6106149190611ab7565b905060018560040160006101000a81548160ff02191690831515021790555061067e33827f000000000000000000000000000000000000000000000000000000000000000073ffffffffffffffffffffffffffffffffffffffff166112679092919063ffffffff16565b8460000154600660008282546106949190611ab7565b9250508190555060006106a63361112d565b0361071c576000600760003373ffffffffffffffffffffffffffffffffffffffff1673ffffffffffffffffffffffffffffffffffffffff16815260200190815260200160002060006101000a81548160ff0219169083151502179055506008600081548092919061071690611aeb565b91905055505b3373ffffffffffffffffffffffffffffffffffffffff167f94ffd6b85c71b847775c89ef6496b93cee961bdc6ff827fd117f174f06f745ae866000015485858a60405161076c9493929190611b14565b60405180910390a250505050506107816112e6565b50565b61078c611221565b600960003373ffffffffffffffffffffffffffffffffffffffff1673ffffffffffffffffffffffffffffffffffffffff168152602001908152602001600020805490508110610807576040517f8c877d2100000000000000000000000000000000000000000000000000000000815260040160405180910390fd5b6000600960003373ffffffffffffffffffffffffffffffffffffffff1673ffffffffffffffffffffffffffffffffffffffff168152602001908152602001600020828154811061085a57610859611983565b5b906000526020600020906005020190508060040160009054906101000a900460ff16156108b3576040517f64141f3400000000000000000000000000000000000000000000000000000000815260040160405180910390fd5b60004290506000610912836040518060a0016040529081600082015481526020016001820154815260200160028201548152602001600382015481526020016004820160009054906101000a900460ff16151515158152505083610a18565b90506000810361094e576040517fb0d3ad0a00000000000000000000000000000000000000000000000000000000815260040160405180910390fd5b8183600301819055506109a233827f000000000000000000000000000000000000000000000000000000000000000073ffffffffffffffffffffffffffffffffffffffff166112679092919063ffffffff16565b3373ffffffffffffffffffffffffffffffffffffffff167fd97872e737006a28639b9771e8c5b348e8bc19f39f0e0ad43ed2c997d03cd70d82866040516109ea929190611b59565b60405180910390a25050506109fd6112e6565b50565b6000610a0b82610fa8565b9050919050565b60085481565b6000826080015180610a2e575082606001518211155b15610a3c5760009050610ac8565b600083604001518311610a4f5782610a55565b83604001515b90506000846060015182610a699190611ab7565b90506000610a8986602001518760400151610a849190611ab7565b610fa8565b90506127106301e13380610a9d91906119e1565b82828860000151610aae91906119e1565b610ab891906119e1565b610ac29190611a52565b93505050505b92915050565b60065481565b60045481565b60015481565b6201518081565b7f000000000000000000000000000000000000000000000000000000000000000081565b60025481565b610b19611221565b600154811080610b2a575060025481115b15610b61576040517f7616640100000000000000000000000000000000000000000000000000000000815260040160405180910390fd5b60008203610b9b576040517f2c5211c600000000000000000000000000000000000000000000000000000000815260040160405180910390fd5b610be83330847f000000000000000000000000000000000000000000000000000000000000000073ffffffffffffffffffffffffffffffffffffffff166112f0909392919063ffffffff16565b8160066000828254610bfa9190611a83565b92505081905550600760003373ffffffffffffffffffffffffffffffffffffffff1673ffffffffffffffffffffffffffffffffffffffff16815260200190815260200160002060009054906101000a900460ff16610cc3576001600760003373ffffffffffffffffffffffffffffffffffffffff1673ffffffffffffffffffffffffffffffffffffffff16815260200190815260200160002060006101000a81548160ff02191690831515021790555060086000815480929190610cbd90611b82565b91905055505b6000429050600960003373ffffffffffffffffffffffffffffffffffffffff1673ffffffffffffffffffffffffffffffffffffffff1681526020019081526020016000206040518060a001604052808581526020018381526020018484610d2a9190611a83565b81526020018381526020016000151581525090806001815401808255809150506001900390600052602060002090600502016000909190919091506000820151816000015560208201518160010155604082015181600201556060820151816003015560808201518160040160006101000a81548160ff02191690831515021790555050503373ffffffffffffffffffffffffffffffffffffffff167fb4caaf29adda3eefee3ad552a8e85058589bf834c7466cae4ee58787f70589ed84846001600960003373ffffffffffffffffffffffffffffffffffffffff1673ffffffffffffffffffffffffffffffffffffffff16815260200190815260200160002080549050610e389190611ab7565b604051610e4793929190611bca565b60405180910390a250610e586112e6565b5050565b6060600960008373ffffffffffffffffffffffffffffffffffffffff1673ffffffffffffffffffffffffffffffffffffffff168152602001908152602001600020805480602002602001604051908101604052809291908181526020016000905b82821015610f3257838290600052602060002090600502016040518060a0016040529081600082015481526020016001820154815260200160028201548152602001600382015481526020016004820160009054906101000a900460ff16151515158152505081526020019060010190610ebd565b505050509050919050565b60055481565b60096020528160005260406000208181548110610f5f57600080fd5b9060005260206000209060050201600091509150508060000154908060010154908060020154908060030154908060040160009054906101000a900460ff16905085565b606481565b60006002548210610fca57600554600454610fc39190611a83565b9050610ffb565b600060025483600554610fdd91906119e1565b610fe79190611a52565b905080600454610ff79190611a83565b9150505b919050565b6000600960008473ffffffffffffffffffffffffffffffffffffffff1673ffffffffffffffffffffffffffffffffffffffff1681526020019081526020016000208054905082106110545760009050611127565b6000600960008573ffffffffffffffffffffffffffffffffffffffff1673ffffffffffffffffffffffffffffffffffffffff16815260200190815260200160002083815481106110a7576110a6611983565b5b90600052602060002090600502016040518060a0016040529081600082015481526020016001820154815260200160028201548152602001600382015481526020016004820160009054906101000a900460ff1615151515815250509050806080015115611119576000915050611127565b6111238142610a18565b9150505b92915050565b6000806000905060005b600960008573ffffffffffffffffffffffffffffffffffffffff1673ffffffffffffffffffffffffffffffffffffffff1681526020019081526020016000208054905081101561121157600960008573ffffffffffffffffffffffffffffffffffffffff1673ffffffffffffffffffffffffffffffffffffffff16815260200190815260200160002081815481106111d2576111d1611983565b5b906000526020600020906005020160040160009054906101000a900460ff1661120457818061120090611b82565b9250505b8080600101915050611137565b5080915050919050565b61271081565b60026000540361125d576040517f3ee5aeb500000000000000000000000000000000000000000000000000000000815260040160405180910390fd5b6002600081905550565b6112e1838473ffffffffffffffffffffffffffffffffffffffff1663a9059cbb858560405160240161129a929190611c10565b604051602081830303815290604052915060e01b6020820180517bffffffffffffffffffffffffffffffffffffffffffffffffffffffff8381831617835250505050611372565b505050565b6001600081905550565b61136c848573ffffffffffffffffffffffffffffffffffffffff166323b872dd86868660405160240161132593929190611c39565b604051602081830303815290604052915060e01b6020820180517bffffffffffffffffffffffffffffffffffffffffffffffffffffffff8381831617835250505050611372565b50505050565b600080602060008451602086016000885af180611395576040513d6000823e3d81fd5b3d9250600051915050600082146113b05760018114156113cc565b60008473ffffffffffffffffffffffffffffffffffffffff163b145b1561140e57836040517f5274afe70000000000000000000000000000000000000000000000000000000081526004016114059190611c70565b60405180910390fd5b50505050565b6000819050919050565b61142781611414565b82525050565b6000602082019050611442600083018461141e565b92915050565b6000604051905090565b600080fd5b61146081611414565b811461146b57600080fd5b50565b60008135905061147d81611457565b92915050565b60006020828403121561149957611498611452565b5b60006114a78482850161146e565b91505092915050565b600080fd5b6000601f19601f8301169050919050565b7f4e487b7100000000000000000000000000000000000000000000000000000000600052604160045260246000fd5b6114fe826114b5565b810181811067ffffffffffffffff8211171561151d5761151c6114c6565b5b80604052505050565b6000611530611448565b905061153c82826114f5565b919050565b60008115159050919050565b61155681611541565b811461156157600080fd5b50565b6000813590506115738161154d565b92915050565b600060a0828403121561158f5761158e6114b0565b5b61159960a0611526565b905060006115a98482850161146e565b60008301525060206115bd8482850161146e565b60208301525060406115d18482850161146e565b60408301525060606115e58482850161146e565b60608301525060806115f984828501611564565b60808301525092915050565b60008060c0838503121561161c5761161b611452565b5b600061162a85828601611579565b92505060a061163b8582860161146e565b9150509250929050565b600073ffffffffffffffffffffffffffffffffffffffff82169050919050565b6000819050919050565b600061168a61168561168084611645565b611665565b611645565b9050919050565b600061169c8261166f565b9050919050565b60006116ae82611691565b9050919050565b6116be816116a3565b82525050565b60006020820190506116d960008301846116b5565b92915050565b600080604083850312156116f6576116f5611452565b5b60006117048582860161146e565b92505060206117158582860161146e565b9150509250929050565b600061172a82611645565b9050919050565b61173a8161171f565b811461174557600080fd5b50565b60008135905061175781611731565b92915050565b60006020828403121561177357611772611452565b5b600061178184828501611748565b91505092915050565b600081519050919050565b600082825260208201905092915050565b6000819050602082019050919050565b6117bf81611414565b82525050565b6117ce81611541565b82525050565b60a0820160008201516117ea60008501826117b6565b5060208201516117fd60208501826117b6565b50604082015161181060408501826117b6565b50606082015161182360608501826117b6565b50608082015161183660808501826117c5565b50505050565b600061184883836117d4565b60a08301905092915050565b6000602082019050919050565b600061186c8261178a565b6118768185611795565b9350611881836117a6565b8060005b838110156118b2578151611899888261183c565b97506118a483611854565b925050600181019050611885565b5085935050505092915050565b600060208201905081810360008301526118d98184611861565b905092915050565b600080604083850312156118f8576118f7611452565b5b600061190685828601611748565b92505060206119178582860161146e565b9150509250929050565b61192a81611541565b82525050565b600060a082019050611945600083018861141e565b611952602083018761141e565b61195f604083018661141e565b61196c606083018561141e565b6119796080830184611921565b9695505050505050565b7f4e487b7100000000000000000000000000000000000000000000000000000000600052603260045260246000fd5b7f4e487b7100000000000000000000000000000000000000000000000000000000600052601160045260246000fd5b60006119ec82611414565b91506119f783611414565b9250828202611a0581611414565b91508282048414831517611a1c57611a1b6119b2565b5b5092915050565b7f4e487b7100000000000000000000000000000000000000000000000000000000600052601260045260246000fd5b6000611a5d82611414565b9150611a6883611414565b925082611a7857611a77611a23565b5b828204905092915050565b6000611a8e82611414565b9150611a9983611414565b9250828201905080821115611ab157611ab06119b2565b5b92915050565b6000611ac282611414565b9150611acd83611414565b9250828203905081811115611ae557611ae46119b2565b5b92915050565b6000611af682611414565b915060008203611b0957611b086119b2565b5b600182039050919050565b6000608082019050611b29600083018761141e565b611b36602083018661141e565b611b43604083018561141e565b611b50606083018461141e565b95945050505050565b6000604082019050611b6e600083018561141e565b611b7b602083018461141e565b9392505050565b6000611b8d82611414565b91507fffffffffffffffffffffffffffffffffffffffffffffffffffffffffffffffff8203611bbf57611bbe6119b2565b5b600182019050919050565b6000606082019050611bdf600083018661141e565b611bec602083018561141e565b611bf9604083018461141e565b949350505050565b611c0a8161171f565b82525050565b6000604082019050611c256000830185611c01565b611c32602083018461141e565b9392505050565b6000606082019050611c4e6000830186611c01565b611c5b6020830185611c01565b611c68604083018461141e565b949350505050565b6000602082019050611c856000830184611c01565b9291505056fea264697066735822122094620248b596a1eaf7de8a980c6aad8b09e1838112cb3d6d07e073f0adde411a64736f6c634300081c0033",
  "linkReferences": {},
  "deployedLinkReferences": {}
}