{
  "_format": "hh-sol-artifact-1",
  "contractName": "NectrToken",
  "sourceName": "contracts/Nectr.sol",
  "abi": [
    {
      "inputs": [],
      "stateMutability": "nonpayable",
      "type": "constructor"
    },
    {
      "inputs": [
        {
          "internalType": "address",
          "name": "spender",
          "type": "address"
        },
        {
          "internalType": "uint256",
          "name": "allowance",
          "type": "uint256"
        },
        {
          "internalType": "uint256",
          "name": "needed",
          "type": "uint256"
        }
      ],
      "name": "ERC20InsufficientAllowance",
      "type": "error"
    },
    {
      "inputs": [
        {
          "internalType": "address",
          "name": "sender",
          "type": "address"
        },
        {
          "internalType": "uint256",
          "name": "balance",
          "type": "uint256"
        },
        {
          "internalType": "uint256",
          "name": "needed",
          "type": "uint256"
        }
      ],
      "name": "ERC20InsufficientBalance",
      "type": "error"
    },
    {
      "inputs": [
        {
          "internalType": "address",
          "name": "approver",
          "type": "address"
        }
      ],
      "name": "ERC20InvalidApprover",
      "type": "error"
    },
    {
      "inputs": [
        {
          "internalType": "address",
          "name": "receiver",
          "type": "address"
        }
      ],
      "name": "ERC20InvalidReceiver",
      "type": "error"
    },
    {
      "inputs": [
        {
          "internalType": "address",
          "name": "sender",
          "type": "address"
        }
      ],
      "name": "ERC20InvalidSender",
      "type": "error"
    },
    {
      "inputs": [
        {
          "internalType": "address",
          "name": "spender",
          "type": "address"
        }
      ],
      "name": "ERC20InvalidSpender",
      "type": "error"
    },
    {
      "inputs": [],
      "name": "MaxMintAmountExceeded",
      "type": "error"
    },
    {
      "inputs": [],
      "name": "MaxSupplyExceeded",
      "type": "error"
    },
    {
      "inputs": [],
      "name": "MintingRestrictedDueToBalance",
      "type": "error"
    },
    {
      "anonymous": false,
      "inputs": [
        {
          "indexed": true,
          "internalType": "address",
          "name": "owner",
          "type": "address"
        },
        {
          "indexed": true,
          "internalType": "address",
          "name": "spender",
          "type": "address"
        },
        {
          "indexed": false,
          "internalType": "uint256",
          "name": "value",
          "type": "uint256"
        }
      ],
      "name": "Approval",
      "type": "event"
    },
    {
      "anonymous": false,
      "inputs": [
        {
          "indexed": true,
          "internalType": "address",
          "name": "from",
          "type": "address"
        },
        {
          "indexed": true,
          "internalType": "address",
          "name": "to",
          "type": "address"
        },
        {
          "indexed": false,
          "internalType": "uint256",
          "name": "value",
          "type": "uint256"
        }
      ],
      "name": "Transfer",
      "type": "event"
    },
    {
      "inputs": [],
      "name": "INITIAL_SUPPLY",
      "outputs": [
        {
          "internalType": "uint256",
          "name": "",
          "type": "uint256"
        }
      ],
      "stateMutability": "view",
      "type": "function"
    },
    {
      "inputs": [],
      "name": "MAX_BALANCE_TO_MINT",
      "outputs": [
        {
          "internalType": "uint256",
          "name": "",
          "type": "uint256"
        }
      ],
      "stateMutability": "view",
      "type": "function"
    },
    {
      "inputs": [],
      "name": "MAX_MINT_AMOUNT",
      "outputs": [
        {
          "internalType": "uint256",
          "name": "",
          "type": "uint256"
        }
      ],
      "stateMutability": "view",
      "type": "function"
    },
    {
      "inputs": [],
      "name": "MAX_SUPPLY",
      "outputs": [
        {
          "internalType": "uint256",
          "name": "",
          "type": "uint256"
        }
      ],
      "stateMutability": "view",
      "type": "function"
    },
    {
      "inputs": [
        {
          "internalType": "address",
          "name": "owner",
          "type": "address"
        },
        {
          "internalType": "address",
          "name": "spender",
          "type": "address"
        }
      ],
      "name": "allowance",
      "outputs": [
        {
          "internalType": "uint256",
          "name": "",
          "type": "uint256"
        }
      ],
      "stateMutability": "view",
      "type": "function"
    },
    {
      "inputs": [
        {
          "internalType": "address",
          "name": "spender",
          "type": "address"
        },
        {
          "internalType": "uint256",
          "name": "value",
          "type": "uint256"
        }
      ],
      "name": "approve",
      "outputs": [
        {
          "internalType": "bool",
          "name": "",
          "type": "bool"
        }
      ],
      "stateMutability": "nonpayable",
      "type": "function"
    },
    {
      "inputs": [
        {
          "internalType": "address",
          "name": "account",
          "type": "address"
        }
      ],
      "name": "balanceOf",
      "outputs": [
        {
          "internalType": "uint256",
          "name": "",
          "type": "uint256"
        }
      ],
      "stateMutability": "view",
      "type": "function"
    },
    {
      "inputs": [
        {
          "internalType": "uint256",
          "name": "value",
          "type": "uint256"
        }
      ],
      "name": "burn",
      "outputs": [],
      "stateMutability": "nonpayable",
      "type": "function"
    },
    {
      "inputs": [
        {
          "internalType": "address",
          "name": "account",
          "type": "address"
        },
        {
          "internalType": "uint256",
          "name": "value",
          "type": "uint256"
        }
      ],
      "name": "burnFrom",
      "outputs": [],
      "stateMutability": "nonpayable",
      "type": "function"
    },
    {
      "inputs": [],
      "name": "decimals",
      "outputs": [
        {
          "internalType": "uint8",
          "name": "",
          "type": "uint8"
        }
      ],
      "stateMutability": "view",
      "type": "function"
    },
    {
      "inputs": [
        {
          "internalType": "uint256",
          "name": "amount",
          "type": "uint256"
        }
      ],
      "name": "mint",
      "outputs": [],
      "stateMutability": "nonpayable",
      "type": "function"
    },
    {
      "inputs": [],
      "name": "name",
      "outputs": [
        {
          "internalType": "string",
          "name": "",
          "type": "string"
        }
      ],
      "stateMutability": "view",
      "type": "function"
    },
    {
      "inputs": [],
      "name": "symbol",
      "outputs": [
        {
          "internalType": "string",
          "name": "",
          "type": "string"
        }
      ],
      "stateMutability": "view",
      "type": "function"
    },
    {
      "inputs": [],
      "name": "totalSupply",
      "outputs": [
        {
          "internalType": "uint256",
          "name": "",
          "type": "uint256"
        }
      ],
      "stateMutability": "view",
      "type": "function"
    },
    {
      "inputs": [
        {
          "internalType": "address",
          "name": "to",
          "type": "address"
        },
        {
          "internalType": "uint256",
          "name": "value",
          "type": "uint256"
        }
      ],
      "name": "transfer",
      "outputs": [
        {
          "internalType": "bool",
          "name": "",
          "type": "bool"
        }
      ],
      "stateMutability": "nonpayable",
      "type": "function"
    },
    {
      "inputs": [
        {
          "internalType": "address",
          "name": "from",
          "type": "address"
        },
        {
          "internalType": "address",
          "name": "to",
          "type": "address"
        },
        {
          "internalType": "uint256",
          "name": "value",
          "type": "uint256"
        }
      ],
      "name": "transferFrom",
      "outputs": [
        {
          "internalType": "bool",
          "name": "",
          "type": "bool"
        }
      ],
      "stateMutability": "nonpayable",
      "type": "function"
    }
  ],
  "bytecode": "0x608060405234801561001057600080fd5b506040518060400160405280600b81526020017f4e6563747220546f6b656e0000000000000000000000000000000000000000008152506040518060400160405280600581526020017f4e45435452000000000000000000000000000000000000000000000000000000815250816003908161008c91906105bc565b50806004908161009c91906105bc565b5050506100ba336a52b7d2dcc80cd2e40000006100bf60201b60201c565b6107ae565b600073ffffffffffffffffffffffffffffffffffffffff168273ffffffffffffffffffffffffffffffffffffffff16036101315760006040517fec442f0500000000000000000000000000000000000000000000000000000000815260040161012891906106cf565b60405180910390fd5b6101436000838361014760201b60201c565b5050565b600073ffffffffffffffffffffffffffffffffffffffff168373ffffffffffffffffffffffffffffffffffffffff160361019957806002600082825461018d9190610719565b9250508190555061026c565b60008060008573ffffffffffffffffffffffffffffffffffffffff1673ffffffffffffffffffffffffffffffffffffffff16815260200190815260200160002054905081811015610225578381836040517fe450d38c00000000000000000000000000000000000000000000000000000000815260040161021c9392919061075c565b60405180910390fd5b8181036000808673ffffffffffffffffffffffffffffffffffffffff1673ffffffffffffffffffffffffffffffffffffffff16815260200190815260200160002081905550505b600073ffffffffffffffffffffffffffffffffffffffff168273ffffffffffffffffffffffffffffffffffffffff16036102b55780600260008282540392505081905550610302565b806000808473ffffffffffffffffffffffffffffffffffffffff1673ffffffffffffffffffffffffffffffffffffffff168152602001908152602001600020600082825401925050819055505b8173ffffffffffffffffffffffffffffffffffffffff168373ffffffffffffffffffffffffffffffffffffffff167fddf252ad1be2c89b69c2b068fc378daa952ba7f163c4a11628f55a4df523b3ef8360405161035f9190610793565b60405180910390a3505050565b600081519050919050565b7f4e487b7100000000000000000000000000000000000000000000000000000000600052604160045260246000fd5b7f4e487b7100000000000000000000000000000000000000000000000000000000600052602260045260246000fd5b600060028204905060018216806103ed57607f821691505b602082108103610400576103ff6103a6565b5b50919050565b60008190508160005260206000209050919050565b60006020601f8301049050919050565b600082821b905092915050565b6000600883026104687fffffffffffffffffffffffffffffffffffffffffffffffffffffffffffffffff8261042b565b610472868361042b565b95508019841693508086168417925050509392505050565b6000819050919050565b6000819050919050565b60006104b96104b46104af8461048a565b610494565b61048a565b9050919050565b6000819050919050565b6104d38361049e565b6104e76104df826104c0565b848454610438565b825550505050565b600090565b6104fc6104ef565b6105078184846104ca565b505050565b5b8181101561052b576105206000826104f4565b60018101905061050d565b5050565b601f8211156105705761054181610406565b61054a8461041b565b81016020851015610559578190505b61056d6105658561041b565b83018261050c565b50505b505050565b600082821c905092915050565b600061059360001984600802610575565b1980831691505092915050565b60006105ac8383610582565b9150826002028217905092915050565b6105c58261036c565b67ffffffffffffffff8111156105de576105dd610377565b5b6105e882546103d5565b6105f382828561052f565b600060209050601f8311600181146106265760008415610614578287015190505b61061e85826105a0565b865550610686565b601f19841661063486610406565b60005b8281101561065c57848901518255600182019150602085019450602081019050610637565b868310156106795784890151610675601f891682610582565b8355505b6001600288020188555050505b505050505050565b600073ffffffffffffffffffffffffffffffffffffffff82169050919050565b60006106b98261068e565b9050919050565b6106c9816106ae565b82525050565b60006020820190506106e460008301846106c0565b92915050565b7f4e487b7100000000000000000000000000000000000000000000000000000000600052601160045260246000fd5b60006107248261048a565b915061072f8361048a565b9250828201905080821115610747576107466106ea565b5b92915050565b6107568161048a565b82525050565b600060608201905061077160008301866106c0565b61077e602083018561074d565b61078b604083018461074d565b949350505050565b60006020820190506107a8600083018461074d565b92915050565b61122a806107bd6000396000f3fe608060405234801561001057600080fd5b50600436106101005760003560e01c80635519835111610097578063a0712d6811610066578063a0712d681461029f578063a9059cbb146102bb578063dd62ed3e146102eb578063fa9b70181461031b57610100565b8063551983511461021757806370a082311461023557806379cc67901461026557806395d89b411461028157610100565b80632ff2e9dc116100d35780632ff2e9dc146101a1578063313ce567146101bf57806332cb6b0c146101dd57806342966c68146101fb57610100565b806306fdde0314610105578063095ea7b31461012357806318160ddd1461015357806323b872dd14610171575b600080fd5b61010d610339565b60405161011a9190610e51565b60405180910390f35b61013d60048036038101906101389190610f0c565b6103cb565b60405161014a9190610f67565b60405180910390f35b61015b6103ee565b6040516101689190610f91565b60405180910390f35b61018b60048036038101906101869190610fac565b6103f8565b6040516101989190610f67565b60405180910390f35b6101a9610427565b6040516101b69190610f91565b60405180910390f35b6101c7610436565b6040516101d4919061101b565b60405180910390f35b6101e561043f565b6040516101f29190610f91565b60405180910390f35b61021560048036038101906102109190611036565b610450565b005b61021f610464565b60405161022c9190610f91565b60405180910390f35b61024f600480360381019061024a9190611063565b610474565b60405161025c9190610f91565b60405180910390f35b61027f600480360381019061027a9190610f0c565b6104bc565b005b6102896104dc565b6040516102969190610e51565b60405180910390f35b6102b960048036038101906102b49190611036565b61056e565b005b6102d560048036038101906102d09190610f0c565b610666565b6040516102e29190610f67565b60405180910390f35b61030560048036038101906103009190611090565b610689565b6040516103129190610f91565b60405180910390f35b610323610710565b6040516103309190610f91565b60405180910390f35b606060038054610348906110ff565b80601f0160208091040260200160405190810160405280929190818152602001828054610374906110ff565b80156103c15780601f10610396576101008083540402835291602001916103c1565b820191906000526020600020905b8154815290600101906020018083116103a457829003601f168201915b5050505050905090565b6000806103d661071e565b90506103e3818585610726565b600191505092915050565b6000600254905090565b60008061040361071e565b9050610410858285610738565b61041b8585856107cd565b60019150509392505050565b6a52b7d2dcc80cd2e400000081565b60006012905090565b6c01431e0fae6d7217caa000000081565b61046161045b61071e565b826108c1565b50565b6b033b2e3c9fd0803ce800000081565b60008060008373ffffffffffffffffffffffffffffffffffffffff1673ffffffffffffffffffffffffffffffffffffffff168152602001908152602001600020549050919050565b6104ce826104c861071e565b83610738565b6104d882826108c1565b5050565b6060600480546104eb906110ff565b80601f0160208091040260200160405190810160405280929190818152602001828054610517906110ff565b80156105645780601f1061053957610100808354040283529160200191610564565b820191906000526020600020905b81548152906001019060200180831161054757829003601f168201915b5050505050905090565b6b033b2e3c9fd0803ce800000061058433610474565b11156105bc576040517f6f8d836100000000000000000000000000000000000000000000000000000000815260040160405180910390fd5b69d3c21bcecceda1000000811115610600576040517f3fca4c4d00000000000000000000000000000000000000000000000000000000815260040160405180910390fd5b6c01431e0fae6d7217caa0000000816106176103ee565b610621919061115f565b1115610659576040517f8a164f6300000000000000000000000000000000000000000000000000000000815260040160405180910390fd5b6106633382610943565b50565b60008061067161071e565b905061067e8185856107cd565b600191505092915050565b6000600160008473ffffffffffffffffffffffffffffffffffffffff1673ffffffffffffffffffffffffffffffffffffffff16815260200190815260200160002060008373ffffffffffffffffffffffffffffffffffffffff1673ffffffffffffffffffffffffffffffffffffffff16815260200190815260200160002054905092915050565b69d3c21bcecceda100000081565b600033905090565b61073383838360016109c5565b505050565b60006107448484610689565b90507fffffffffffffffffffffffffffffffffffffffffffffffffffffffffffffffff8110156107c757818110156107b7578281836040517ffb8f41b20000000000000000000000000000000000000000000000000000000081526004016107ae939291906111a2565b60405180910390fd5b6107c6848484840360006109c5565b5b50505050565b600073ffffffffffffffffffffffffffffffffffffffff168373ffffffffffffffffffffffffffffffffffffffff160361083f5760006040517f96c6fd1e00000000000000000000000000000000000000000000000000000000815260040161083691906111d9565b60405180910390fd5b600073ffffffffffffffffffffffffffffffffffffffff168273ffffffffffffffffffffffffffffffffffffffff16036108b15760006040517fec442f050000000000000000000000000000000000000000000000000000000081526004016108a891906111d9565b60405180910390fd5b6108bc838383610b9c565b505050565b600073ffffffffffffffffffffffffffffffffffffffff168273ffffffffffffffffffffffffffffffffffffffff16036109335760006040517f96c6fd1e00000000000000000000000000000000000000000000000000000000815260040161092a91906111d9565b60405180910390fd5b61093f82600083610b9c565b5050565b600073ffffffffffffffffffffffffffffffffffffffff168273ffffffffffffffffffffffffffffffffffffffff16036109b55760006040517fec442f050000000000000000000000000000000000000000000000000000000081526004016109ac91906111d9565b60405180910390fd5b6109c160008383610b9c565b5050565b600073ffffffffffffffffffffffffffffffffffffffff168473ffffffffffffffffffffffffffffffffffffffff1603610a375760006040517fe602df05000000000000000000000000000000000000000000000000000000008152600401610a2e91906111d9565b60405180910390fd5b600073ffffffffffffffffffffffffffffffffffffffff168373ffffffffffffffffffffffffffffffffffffffff1603610aa95760006040517f94280d62000000000000000000000000000000000000000000000000000000008152600401610aa091906111d9565b60405180910390fd5b81600160008673ffffffffffffffffffffffffffffffffffffffff1673ffffffffffffffffffffffffffffffffffffffff16815260200190815260200160002060008573ffffffffffffffffffffffffffffffffffffffff1673ffffffffffffffffffffffffffffffffffffffff168152602001908152602001600020819055508015610b96578273ffffffffffffffffffffffffffffffffffffffff168473ffffffffffffffffffffffffffffffffffffffff167f8c5be1e5ebec7d5bd14f71427d1e84f3dd0314c0f7b2291e5b200ac8c7c3b92584604051610b8d9190610f91565b60405180910390a35b50505050565b600073ffffffffffffffffffffffffffffffffffffffff168373ffffffffffffffffffffffffffffffffffffffff1603610bee578060026000828254610be2919061115f565b92505081905550610cc1565b60008060008573ffffffffffffffffffffffffffffffffffffffff1673ffffffffffffffffffffffffffffffffffffffff16815260200190815260200160002054905081811015610c7a578381836040517fe450d38c000000000000000000000000000000000000000000000000000000008152600401610c71939291906111a2565b60405180910390fd5b8181036000808673ffffffffffffffffffffffffffffffffffffffff1673ffffffffffffffffffffffffffffffffffffffff16815260200190815260200160002081905550505b600073ffffffffffffffffffffffffffffffffffffffff168273ffffffffffffffffffffffffffffffffffffffff1603610d0a5780600260008282540392505081905550610d57565b806000808473ffffffffffffffffffffffffffffffffffffffff1673ffffffffffffffffffffffffffffffffffffffff168152602001908152602001600020600082825401925050819055505b8173ffffffffffffffffffffffffffffffffffffffff168373ffffffffffffffffffffffffffffffffffffffff167fddf252ad1be2c89b69c2b068fc378daa952ba7f163c4a11628f55a4df523b3ef83604051610db49190610f91565b60405180910390a3505050565b600081519050919050565b600082825260208201905092915050565b60005b83811015610dfb578082015181840152602081019050610de0565b60008484015250505050565b6000601f19601f8301169050919050565b6000610e2382610dc1565b610e2d8185610dcc565b9350610e3d818560208601610ddd565b610e4681610e07565b840191505092915050565b60006020820190508181036000830152610e6b8184610e18565b905092915050565b600080fd5b600073ffffffffffffffffffffffffffffffffffffffff82169050919050565b6000610ea382610e78565b9050919050565b610eb381610e98565b8114610ebe57600080fd5b50565b600081359050610ed081610eaa565b92915050565b6000819050919050565b610ee981610ed6565b8114610ef457600080fd5b50565b600081359050610f0681610ee0565b92915050565b60008060408385031215610f2357610f22610e73565b5b6000610f3185828601610ec1565b9250506020610f4285828601610ef7565b9150509250929050565b60008115159050919050565b610f6181610f4c565b82525050565b6000602082019050610f7c6000830184610f58565b92915050565b610f8b81610ed6565b82525050565b6000602082019050610fa66000830184610f82565b92915050565b600080600060608486031215610fc557610fc4610e73565b5b6000610fd386828701610ec1565b9350506020610fe486828701610ec1565b9250506040610ff586828701610ef7565b9150509250925092565b600060ff82169050919050565b61101581610fff565b82525050565b6000602082019050611030600083018461100c565b92915050565b60006020828403121561104c5761104b610e73565b5b600061105a84828501610ef7565b91505092915050565b60006020828403121561107957611078610e73565b5b600061108784828501610ec1565b91505092915050565b600080604083850312156110a7576110a6610e73565b5b60006110b585828601610ec1565b92505060206110c685828601610ec1565b9150509250929050565b7f4e487b7100000000000000000000000000000000000000000000000000000000600052602260045260246000fd5b6000600282049050600182168061111757607f821691505b60208210810361112a576111296110d0565b5b50919050565b7f4e487b7100000000000000000000000000000000000000000000000000000000600052601160045260246000fd5b600061116a82610ed6565b915061117583610ed6565b925082820190508082111561118d5761118c611130565b5b92915050565b61119c81610e98565b82525050565b60006060820190506111b76000830186611193565b6111c46020830185610f82565b6111d16040830184610f82565b949350505050565b60006020820190506111ee6000830184611193565b9291505056fea26469706673582212202ac6ec2928ca9fe2841b95d7b5f21b9937000efa0b967a000170ce814880c4ef64736f6c634300081c0033",
  "linkReferences": {},
  "deployedLinkReferences": {}
}